{
  "contractName": "SimpleEthereumTransfer",
  "abi": [
    {
      "anonymous": false,
      "inputs": [
        {
          "indexed": true,
          "internalType": "address",
          "name": "from",
          "type": "address"
        },
        {
          "indexed": true,
          "internalType": "address",
          "name": "to",
          "type": "address"
        },
        {
          "indexed": false,
          "internalType": "uint256",
          "name": "value",
          "type": "uint256"
        }
      ],
      "name": "Transfer",
      "type": "event"
    },
    {
      "inputs": [
        {
          "internalType": "address payable",
          "name": "_to",
          "type": "address"
        }
      ],
      "name": "transferEther",
      "outputs": [],
      "stateMutability": "payable",
      "type": "function"
    }
  ],
  "bytecode": "0x608060405234801561001057600080fd5b506102a8806100206000396000f3fe60806040526004361061001e5760003560e01c80636b55e99114610023575b600080fd5b61003d60048036038101906100389190610194565b61003f565b005b60003411610082576040517f08c379a00000000000000000000000000000000000000000000000000000000081526004016100799061021e565b60405180910390fd5b8073ffffffffffffffffffffffffffffffffffffffff166108fc349081150290604051600060405180830381858888f193505050501580156100c8573d6000803e3d6000fd5b508073ffffffffffffffffffffffffffffffffffffffff163373ffffffffffffffffffffffffffffffffffffffff167fddf252ad1be2c89b69c2b068fc378daa952ba7f163c4a11628f55a4df523b3ef346040516101269190610257565b60405180910390a350565b600080fd5b600073ffffffffffffffffffffffffffffffffffffffff82169050919050565b600061016182610136565b9050919050565b61017181610156565b811461017c57600080fd5b50565b60008135905061018e81610168565b92915050565b6000602082840312156101aa576101a9610131565b5b60006101b88482850161017f565b91505092915050565b600082825260208201905092915050565b7f416d6f756e74206d7573742062652067726561746572207468616e2030000000600082015250565b6000610208601d836101c1565b9150610213826101d2565b602082019050919050565b60006020820190508181036000830152610237816101fb565b9050919050565b6000819050919050565b6102518161023e565b82525050565b600060208201905061026c6000830184610248565b9291505056fea26469706673582212207e09d0c128a2cb2f3e93b1c2a25fa04295c5597146bb4ab2afa27441d73396ea64736f6c63430008110033",
  "immutableReferences": {},
  "source": "/*pragma solidity ^0.8.0;\n\n// ERC20 token contract\ncontract MyToken {\n    string public name;\n    string public symbol;\n    uint8 public decimals;\n    uint256 public totalSupply;\n    \n    mapping (address => uint256) public balanceOf;\n    mapping (address => mapping (address => uint256)) public allowance;\n    \n    event Transfer(address indexed from, address indexed to, uint256 value);\n    event Approval(address indexed owner, address indexed spender, uint256 value);\n    \n    constructor(uint256 initialSupply, string memory _name, string memory _symbol, uint8 _decimals) {\n        balanceOf[msg.sender] = initialSupply;\n        totalSupply = initialSupply;\n        name = _name;\n        symbol = _symbol;\n        decimals = _decimals;\n    }\n    \n    function transfer(address _to, uint256 _value) public returns (bool success) {\n        require(balanceOf[msg.sender] >= _value);\n        balanceOf[msg.sender] -= _value;\n        balanceOf[_to] += _value;\n        emit Transfer(msg.sender, _to, _value);\n        return true;\n    }\n    \n    function approve(address _spender, uint256 _value) public returns (bool success) {\n        allowance[msg.sender][_spender] = _value;\n        emit Approval(msg.sender, _spender, _value);\n        return true;\n    }\n    \n    function transferFrom(address _from, address _to, uint256 _value) public returns (bool success) {\n        require(balanceOf[_from] >= _value);\n        require(allowance[_from][msg.sender] >= _value);\n        balanceOf[_from] -= _value;\n        balanceOf[_to] += _value;\n        allowance[_from][msg.sender] -= _value;\n        emit Transfer(_from, _to, _value);\n        return true;\n    }\n}\n*/\n\n// SPDX-License-Identifier: MIT\npragma solidity ^0.8.0;\n\ncontract SimpleEthereumTransfer {\n    \n    event Transfer(address indexed from, address indexed to, uint256 value);\n    \n    function transferEther(address payable _to) public payable {\n        require(msg.value > 0, \"Amount must be greater than 0\");\n        _to.transfer(msg.value);\n        emit Transfer(msg.sender, _to, msg.value);\n    }\n}\n",
  "sourcePath": "/Users/kalolevente/Downloads/growatt_api_solar_coin/contracts/tokenmint.sol",
  "compiler": {
    "name": "solc",
    "version": "0.8.17+commit.8df45f5f.Emscripten.clang"
  },
  "schemaVersion": "3.4.10",
  "updatedAt": "2023-04-06T18:19:45.528Z",
  "devdoc": {
    "kind": "dev",
    "methods": {},
    "version": 1
  },
  "userdoc": {
    "kind": "user",
    "methods": {},
    "version": 1
  }
}